:060000000A128A11AC2F68
:100F580083010A128A11B02F8316031388018601B0
:100F68008701B62FFF308312031388000D30F2007B
:100F7800AF30F100C130F000F00BC02FF10BC02FE3
:100F8800F20BC02F0000FF30831203138600870185
:100F98000D30F200AF30F100C130F000F00BD22F6D
:100FA800F10BD22FF20BD22F00008312031388010A
:100FB8000D30F200AF30F100C130F000F00BE22F3D
:100FC800F10BE22FF20BE22F0000831203138601CC
:100FD800FF3087000D30F200AF30F100C130F00073
:100FE800F00BF42FF10BF42FF20BF42F0000B62FB7
:080FF800B62F0A128A1100282D
:02400E00BAFFF7
:00000001FF
